:02000000802E50
:05000B0001ACC28D32C2
:1000300075A882758901D28C750000750100750262
:1000400000750300740011CD8F018F028F038F04A0
:10005000D2877D00115880FCBD0010740054E74425
:1000600000F5B0E50211CD8E90803DBD0110740009
:1000700054E74408F5B0E50211CD8F90802ABD0207
:1000800010740054E74410F5B0E50311CD8E908054
:1000900017BD0314740054E74418F5B0E50311CDFF
:1000A0008F9080007D0080B00D80AD220500E500BE
:1000B000B402057500000501E501B43B05750100BA
:1000C0000502E502B43B0575020005033275F00A2E
:0F00D0008490011093F4FEE5F093F4FF74002286
:0A0110003F065B4F666D7D077F6FB1
:00000001FF