:10000000C29FD29E0200CC3090433091463092493C
:1000100030937C30947F2230904530914830924B21
:1000200030937830947B2230904730914A30924D13
:100030003093743094772230904930910A3092494D
:100040003093703094732278301200BF22783112CE
:1000500000BF2278321200BF2278331200BF22780C
:10006000341200BF2278351200BF2278361200BF4A
:100070002278371200BF2278381200BF2278391256
:1000800000BF2278411200BF2278421200BF2278BE
:10009000431200BF2278441200BF2278451200BFED
:1000A0002278461200BF2278471200BF22784812F9
:1000B00000BF2278491200BF22784A1200BF22E80E
:1000C000A2D092E7F5993099FDC29922C28011071A
:1000D000D280C2811117D281C2821127D282C283FB
:0600E0001137D28380E617
:00000001FF
